:020000040000FA
:100000000A128A11FC2F00308A000408840A820731
:1000100000340D34123408341434083414341E34CB
:10002000003401340A34143400341C3414341F34C2
:10003000003400340434083400341C3414341E34C6
:10004000003400340E34123412340F3400340434CB
:10005000003404340A3404340A340F3400340434D1
:10006000003499344E3467347534793400346E3446
:100070002034543401346E34203450346834023423
:1000800070340A34543403346D34203462346934A7
:10009000043474340A3466343D3433344B344834D5
:1000A0007A34003466343D3434344B3448347A3452
:1000B000003444343D343334303425340034443453
:0A00C0003D34383430342534003468
:100888008316031789018801831603130614861437
:1008980006158113073095000910831203130914F4
:1008A8000800F200F301F4017308720784000A12C9
:1008B8008A1103200A128A110A3A031D642C652C36
:1008C800662C6D2C0130F3070318F40A0030F40786
:1008D800582C7408F1007308F000080083160313FD
:1008E800071587148312031391013E3083160313EF
:1008F800920012308312031395000C3097009D016B
:100908009716171683160313071183120313920100
:100918009210121412150800831603130715871472
:10092800831203139101523083160313920043304C
:10093800831203139B000C309D0097019D161D1216
:100948008316031387108312031392019210121453
:10095800121508000A128A1159270A128A11F6017B
:1009680005300A128A1113250A128A114A300A120E
:100978008A11F0240A128A11F601F60A05300A12C1
:100988008A1113250A128A1151300A128A11F02489
:100998000A128A1108000A128A1159270A128A11A2
:1009A800F60105300A128A1113250A128A114330FA
:1009B8000A128A11F0240A128A11F601F60A053081
:1009C8000A128A1113250A128A1157300A128A113B
:1009D800F0240A128A11080083120313A000062DBE
:1009E800200884000A128A1103200A128A110A12A6
:1009F8008A117E260A128A110130FD007D088312B1
:100A08000313A007200884000A128A1103200A127F
:100A18008A11003A031D112D122DF42C0800F8003C
:100A280076080319182D192D1E2D4030F700770868
:100A3800F9001F2DF9017808F7007708F9077908F8
:100A48008038F7007708F30000300A128A11692508
:100A58000A128A110A128A1139250A128A11003AD1
:100A6800031D372D382D2E2D080083160313081665
:100A7800881608178817831203130815881006307C
:100A8800F000F00B452D0000831203138815063083
:100A9800F000F00B4D2D0000003083120313881B6B
:100AA8000130F10088110630F000F00B592D0000DC
:100AB8008312031388150630F000F00B612D000037
:100AC80083120313881171080800F50083160313B5
:100AD800081288120813881375080319742D752DC8
:100AE800792D8312031388147C2D83120313881025
:100AF8000630F400F40B7E2D000083120313081156
:100B08000630F400F40B862D0000831203138811BD
:100B18007308F40004300310F40CFF3E031D8F2DFE
:100B280074080A128A11A2250A128A1173080F3949
:100B38000A128A11A2250A128A110800F1008316E6
:100B4800031308128812081388137108F00070083C
:100B5800F2007218B02DB42D831203130816B72DA6
:100B6800831203130812F218BA2DBE2D8312031331
:100B78008816C12D8312031388127219C42DC82D2B
:100B8800831203130817CB2D831203130813F219CA
:100B9800CE2DD22D831203138817D52D831203135C
:100BA80088130630F000F00BD72D000083120313D2
:100BB80088150630F000F00BDF2D000083120313B8
:100BC80088110800F900F701F8014030F6007608AE
:100BD800F30000300A128A1169250A128A110A12D2
:100BE8008A1139250A128A11003A031DFC2DFD2DA0
:100BF800F32D1F2E7708790784000A128A11032023
:100C08000A128A11F6007608F30001300A128A11D6
:100C180069250A128A110A128A1139250A128A11BB
:100C2800003A031D182E192E0F2E0130F70703184E
:100C3800F80A0030F8077708790784000A128A1141
:100C480003200A128A11993A031D2B2E2C2EFE2DF1
:100C580008000A128A1144240A128A118312031303
:100C68000618372E382E482E061C3B2E3C2E382EC2
:100C780009140A128A1172240A128A110A128A1194
:100C8800AE240A128A11322E86184B2E4C2E5C2E58
:100C9800861C4F2E502E4C2E09140A128A119024AD
:100CA8000A128A110A128A11CF240A128A11322EC4
:100CB80006195F2E602E7A2E061D632E642E602E76
:100CC80083160313071507196A2E6E2E831603134E
:100CD8008714712E831603138710831203130910C8
:100CE8000A128A11DA260A128A11322E322E0A12B2
:100CF8008A110028FC00C62EF301F30A00300A12FC
:100D08008A1169250A128A110A128A1139250A12CA
:100D18008A11003A031D912E922E882ED92EF601A3
:100D2800F60A00300A128A1113250A128A11D92EDE
:100D38001030FA007A08F30000300A128A11692587
:100D48000A128A110A128A1139250A128A11003ADE
:100D5800031DAF2EB02EA62ED92E7C08FA007A08D5
:100D6800F30001300A128A1169250A128A110A123F
:100D78008A1139250A128A11003A031DC42EC52E7C
:100D8800BB2ED92E7C08FA00FB017B08003A031918
:100D9800CE2EB12E7A08083A03199C2E023A03196E
:100DA800932E063A0319802EB12E080083120313DE
:100DB800A001A10101300A128A11E6250A128A113E
:100DC8000A128A1159270A128A112A300A128A111C
:100DD80055240A128A11710883120313A10070089E
:100DE800A000F60100300A128A1113250A128A118E
:100DF80083120313A201A301162F22082A3E84009E
:100E08000A128A1103200A128A110A128A117E26EE
:100E18000A128A11013083120313A2070318A30AC6
:100E28000030A30721082302031D1C2F20082202DB
:100E3800031C1F2F202F012F3A300A128A11552424
:100E48000A128A11710883120313A1007008A00006
:100E5800F601F60A05300A128A1113250A128A11B8
:100E680083120313A201A3014E2F22083A3E8400E5
:100E78000A128A1103200A128A110A128A117E267E
:100E88000A128A11013083120313A2070318A30A56
:100E98000030A30721082302031D542F2008220233
:100EA800031C572F582F392F080083160313881156
:100EB8008810081108128812081388131430F700D4
:100EC8007930F600F60B662FF70B662F6B2F83121F
:100ED800031388100811881103300A128A11A225F9
:100EE8000A128A110D30F700FB30F600F60B7A2F44
:100EF800F70B7A2F7F2F03300A128A11A2250A12C4
:100F08008A110D30F700FB30F600F60B892FF70B2E
:100F1800892F8E2F03300A128A11A2250A128A11EC
:100F28000D30F700FB30F600F60B982FF70B982FD3
:100F38009D2F02300A128A11A2250A128A110A125A
:100F48008A1139250A128A11003A031DAC2FAD2FD8
:100F5800A32F2830F6007608F30000300A128A1111
:100F680069250A128A110A128A1139250A128A1168
:100F7800003A031DC02FC12FB72F0C30F60076089A
:100F8800F30000300A128A1169250A128A110A121E
:100F98008A1139250A128A11003A031DD42FD52F38
:100FA800CB2FF301F30A00300A128A1169250A12BD
:100FB8008A110A128A1139250A128A11003A031D68
:100FC800E62FE72FDD2F0630F6007608F300003015
:100FD8000A128A1169250A128A110A128A113925F8
:100FE8000A128A11003A031DFA2FFB2FF12F08006D
:080FF80083010A128A112D2E5B
:04400E00F220FF3F5E
:00000001FF
