:020000040000FA
:100000000A128A11FC2F00308A000408840A820731
:1000100000340B3414340C3412340C3414341834CB
:100020000E3401340A34143400341C3414341E34B5
:10003000003402340434083400341C3414341E34C4
:10004000003400340834043400341C3414341E34B6
:1000500000340834143400341C3414341E3408348E
:10006000003400340C3404341C34143414341C3480
:100070000034013402340C3404341C3414341C3481
:1000800000341034083400341C34143414341C3458
:1000900000340E34093409341D34093409340E3463
:1000A000003401340A34143400341C3414341E3443
:1000B000003499344E34673403347934533469341A
:1000C0006E3468343A34313432342F34323430348C
:1000D000303431344E340534693453343A344E3488
:1000E00069346E34683454346834753404346E348E
:1000F0004E3467347534793401346E3454340134F9
:100100006E3450346834023470344C3406347034F5
:100110003A3400344834563454343134353441346C
:1001200048344B34543454343A3447340734563416
:10013000093470344D345334533456343A343134F2
:10014000393434343334363434343834313400349C
:1009780083120313A000D22C200884000A128A11C3
:1009880003200A128A110A128A11B2250A128A1140
:100998000130FD007D0883120313A007200884009E
:1009A8000A128A1103200A128A11003A031DDD2C4B
:1009B800DE2CC02C0800F80076080319E42CE52C7E
:1009C800EA2C4030F7007708F900EB2CF901780899
:1009D800F7007708F90779088038F7007708F300F7
:1009E80000300A128A1135250A128A110A128A1150
:1009F80005250A128A11003A031D032D042DFA2C2D
:100A08000800831603130816881608178817831218
:100A18000313081588100630F000F00B112D0000A4
:100A28008312031388150630F000F00B192D00000F
:100A3800003083120313881B0130F100881106303F
:100A4800F000F00B252D00008312031388150630E3
:100A5800F000F00B2D2D000083120313881171088C
:100A68000800F50083160313081288120813881368
:100A780075080319402D412D452D83120313881441
:100A8800482D8312031388100630F400F40B4A2D06
:100A980000008312031308110630F400F40B522DE2
:100AA80000008312031388117308F4000430031044
:100AB800F40CFF3E031D5B2D74080A128A116E2583
:100AC8000A128A1173080F390A128A116E250A123E
:100AD8008A110800F10083160313081288120813FC
:100AE80088137108F0007008F20072187C2D802DB0
:100AF800831203130816832D831203130812F218A6
:100B0800862D8A2D8312031388168D2D83120313C5
:100B180088127219902D942D831203130817972D9C
:100B2800831203130813F2199A2D9E2D83120313AF
:100B38008817A12D8312031388130630F000F00BD9
:100B4800A32D00008312031388150630F000F00B64
:100B5800AB2D00008312031388110800FC00FA2D46
:100B6800F301F30A00300A128A1135250A128A1194
:100B78000A128A1105250A128A11003A031DC52D89
:100B8800C62DBC2D0D2EF601F60A00300A128A1168
:100B9800DF240A128A110D2E1030FA007A08F300A9
:100BA80000300A128A1135250A128A110A128A118E
:100BB80005250A128A11003A031DE32DE42DDA2DCA
:100BC8000D2E7C08FA007A08F30001300A128A1107
:100BD80035250A128A110A128A1105250A128A1164
:100BE800003A031DF82DF92DEF2D0D2E7C08FA0083
:100BF800FB017B08003A0319022EE52D7A08083A12
:100C08000319D02D023A0319C72D063A0319B42D3A
:100C1800E52D08008316031388118810081108129F
:100C28008812081388131430F7007930F600F60B91
:100C38001B2EF70B1B2E202E83120313881008116E
:100C4800881103300A128A116E250A128A110D3092
:100C5800F700FB30F600F60B2F2EF70B2F2E342E55
:100C680003300A128A116E250A128A110D30F70014
:100C7800FB30F600F60B3E2EF70B3E2E432E0330CC
:100C88000A128A116E250A128A110D30F700FB30FC
:100C9800F600F60B4D2EF70B4D2E522E02300A128F
:100CA8008A116E250A128A110A128A1105250A125A
:100CB8008A11003A031D612E622E582E2830F60044
:100CC8007608F30000300A128A1135250A128A11B3
:100CD8000A128A1105250A128A11003A031D752E77
:100CE800762E6C2E0C30F6007608F30000300A12CF
:100CF8008A1135250A128A110A128A1105250A1243
:100D08008A11003A031D892E8A2E802EF301F30AD8
:100D180000300A128A1135250A128A110A128A111C
:100D280005250A128A11003A031D9B2E9C2E922E2D
:100D38000630F6007608F30000300A128A113525CD
:100D48000A128A110A128A1105250A128A11003A12
:100D5800031DAF2EB02EA62E08000A128A110E26E9
:100D68000A128A1183120313A4014030A10021083A
:100D7800F30000300A128A1135250A128A110A1264
:100D88008A1105250A128A11003A031DCC2ECD2E90
:100D9800C32EEF2E2408013E84000A128A11032074
:100DA8000A128A11A1002108F30001300A128A11DF
:100DB80035250A128A110A128A1105250A128A1182
:100DC800003A031DE82EE92EDF2E013083120313AB
:100DD800A1002108A407831203132408013E8400FC
:100DE8000A128A1103200A128A11993A031DFD2E4C
:100DF800FE2ECE2E0C300A128A11B2250A128A1142
:100E0800F60100300A128A11DF240A128A118312AD
:100E18000313A4012408703E84000A128A110320D7
:100E28000A128A110A128A11B2250A128A1101308D
:100E380083120313A1002108A4070D302402031C08
:100E4800262F272F0E2FF601F60A00300A128A11D4
:100E5800DF240A128A1192300A128A11BC240A125B
:100E68008A110B3083120313A3002630A2005D30D1
:100E7800A100A10B3D2FA20B3D2FA30B3D2F0C3042
:100E88000A128A11B2250A128A11F60100300A12D2
:100E98008A11DF240A128A1183120313A401240879
:100EA800523E84000A128A1103200A128A110A1279
:100EB8008A11B2250A128A11013083120313A10084
:100EC8002108A40710302402031C6B2F6C2F532F0A
:100ED800F601F60A00300A128A11DF240A128A1172
:100EE80083120313A4012408623E84000A128A11A3
:100EF80003200A128A110A128A11B2250A128A11CB
:100F0800013083120313A1002108A4070E30240224
:100F1800031C8F2F902F772F0B3083120313A300FE
:100F28002630A2005D30A100A10B982FA20B982FAC
:100F3800A30B982F0C300A128A11B2250A128A11B3
:100F4800F60100300A128A11DF240A128A1183126C
:100F58000313A4012408883E84000A128A1103207E
:100F68000A128A110A128A11B2250A128A1101304C
:100F780083120313A1002108A4070A302402031CCA
:100F8800C62FC72FAE2FF601F60A00300A128A11B3
:100F9800DF240A128A1183120313A40124087D3E58
:100FA80084000A128A1103200A128A110A128A116D
:100FB800B2250A128A11013083120313A1002108F5
:100FC800A4070B302402031CEA2FEB2FD22F0B307F
:100FD80083120313A3002630A2005D30A100A10BE9
:100FE800F32FA20BF32FA30BF32F0A128A11002859
:080FF80083010A128A11B12ED7
:04400E00F220FF3F5E
:00000001FF
