:020000040000FA
:100000000A128A11FC2F00308A000408840A820731
:1000100000340B3414340C3412340C3414341834CB
:100020000E3401340A34143400341C3414341E34B5
:10003000003402340434083400341C3414341E34C4
:10004000003400340834043400341C3414341E34B6
:1000500000340834143400341C3414341E3408348E
:10006000003400340C3404341C34143414341C3480
:100070000034013402340C3404341C3414341C3481
:1000800000341034083400341C34143414341C3458
:1000900000340E34093409341D34093409340E3463
:1000A000003401340A34143400341C3414341E3443
:1000B000003499344E34673403347934533469341A
:1000C0006E3468343A34313432342F34323430348C
:1000D000303431344E340534693453343A344E3488
:1000E00069346E34683454346834753404346E348E
:1000F0004E3467347534793401346E3454340134F9
:100100006E3450346834023470344C3406347034F5
:100110003A3400344834563454343134353441346C
:1001200048344B34543454343A3447340734563416
:10013000093470344D345334533456343A343134F2
:10014000393434343334363434343834313400349C
:1008B2001830F6007608F30000300A128A1120255B
:1008C2000A128A1108001C30F6007608F300003084
:1008D2000A128A1120250A128A110800F900FA0167
:1008E200842C0A128A1159240A128A118230F800C1
:1008F200DD30F700F70B7B2CF80B7B2C802C0130C2
:10090200F7007708FA0779087A02031C892C8A2CE7
:10091200722C0800F900FA01A02C0A128A11642430
:100922000A128A118230F800DD30F700F70B972C9B
:10093200F80B972C9C2C0130F7007708FA077908FE
:100942007A02031CA52CA62C8E2C080083120313FA
:10095200A000BD2C200884000A128A1103200A126A
:100962008A110A128A119D250A128A110130FD008C
:100972007D0883120313A007200884000A128A113B
:1009820003200A128A11003A031DC82CC92CAB2C71
:100992000800F80076080319CF2CD02CD52C403053
:1009A200F7007708F900D62CF9017808F7007708E4
:1009B200F90779088038F7007708F30000300A1247
:1009C2008A1120250A128A110A128A11F0240A12A7
:1009D2008A11003A031DEE2CEF2CE52C0800831639
:1009E20003130816881608178817831203130815AD
:1009F20088100630F000F00BFC2C00008312031369
:100A020088150630F000F00B042D00000030831230
:100A12000313881B0130F10088110630F000F00B3F
:100A2200102D00008312031388150630F000F00B1E
:100A3200182D000083120313881171080800F500B5
:100A420083160313081288120813881375080319F2
:100A52002B2D2C2D302D831203138814332D83124A
:100A6200031388100630F400F40B352D00008312B6
:100A7200031308110630F400F40B3D2D000083121D
:100A8200031388117308F40004300310F40CFF3EC2
:100A9200031D462D74080A128A1159250A128A1159
:100AA20073080F390A128A1159250A128A1108008D
:100AB200F1008316031308128812081388137108B1
:100AC200F0007008F2007218672D6B2D8312031369
:100AD20008166E2D831203130812F218712D752D4C
:100AE200831203138816782D831203138812721946
:100AF2007B2D7F2D831203130817822D831203137C
:100B02000813F219852D892D8312031388178C2D52
:100B12008312031388130630F000F00B8E2D0000B1
:100B22008312031388150630F000F00B962D000097
:100B32008312031388110800FC00E52DF301F30A68
:100B420000300A128A1120250A128A110A128A1109
:100B5200F0240A128A11003A031DB02DB12DA72DDF
:100B6200F82DF601F60A00300A128A11CA240A1276
:100B72008A11F82D1030FA007A08F30000300A12B8
:100B82008A1120250A128A110A128A11F0240A12E5
:100B92008A11003A031DCE2DCF2DC52DF82D7C08CC
:100BA200FA007A08F30001300A128A1120250A128B
:100BB2008A110A128A11F0240A128A11003A031DBC
:100BC200E32DE42DDA2DF82D7C08FA00FB017B08D9
:100BD200003A0319ED2DD02D7A08083A0319BB2DDE
:100BE200023A0319B22D063A03199F2DD02D08009F
:100BF200831603138811881008110812881208132B
:100C020088131430F7007930F600F60B062EF70B36
:100C1200062E0B2E8312031388100811881103303D
:100C22000A128A1159250A128A110D30F700FB3077
:100C3200F600F60B1A2EF70B1A2E1F2E03300A128D
:100C42008A1159250A128A110D30F700FB30F6007D
:100C5200F60B292EF70B292E2E2E03300A128A119B
:100C620059250A128A110D30F700FB30F600F60BF7
:100C7200382EF70B382E3D2E02300A128A115925D2
:100C82000A128A110A128A11F0240A128A11003AEF
:100C9200031D4C2E4D2E432E2830F6007608F3000D
:100CA20000300A128A1120250A128A110A128A11A8
:100CB200F0240A128A11003A031D602E612E572E6B
:100CC2000C30F6007608F30000300A128A11202553
:100CD2000A128A110A128A11F0240A128A11003A9F
:100CE200031D742E752E6B2EF301F30A00300A12C7
:100CF2008A1120250A128A110A128A11F0240A1274
:100D02008A11003A031D862E872E7D2E0630F600AC
:100D12007608F30000300A128A1120250A128A117D
:100D22000A128A11F0240A128A11003A031D9A2E1D
:100D32009B2E912E0800033083120313A40000306F
:100D4200A5000A128A11F9250A128A1183120313C5
:100D5200A6014030A1002108F30000300A128A11D6
:100D620020250A128A110A128A11F0240A128A1103
:100D7200003A031DBD2EBE2EB42EE02E2608013EE3
:100D820084000A128A1103200A128A11A100210882
:100D9200F30001300A128A1120250A128A110A125E
:100DA2008A11F0240A128A11003A031DD92EDA2E72
:100DB200D02E013083120313A1002108A60783124B
:100DC20003132608013E84000A128A1103200A1224
:100DD2008A11993A031DEE2EEF2EBF2E432F0C30AF
:100DE2000A128A119D250A128A11033083120313F3
:100DF200A3008A30A2005530A100A10BFE2EA20B47
:100E0200FE2EA30BFE2EF60100300A128A11CA240E
:100E12000A128A1183120313A6012608703E840067
:100E22000A128A1103200A128A110A128A119D25B6
:100E32000A128A11013083120313A1002108A607A6
:100E42000D302602031C262F272F0E2FF601F60A3D
:100E520000300A128A11CA240A128A1192300A1226
:100E62008A11A7240A128A11033083120313A300E2
:100E72008A30A2005530A100A10B3D2FA20B3D2FBD
:100E8200A30B3D2F013083120313A4020030031C75
:100E9200A503A502240A031D522F250A031D522F62
:100EA200532FF02E0C300A128A119D250A128A1134
:100EB200F60100300A128A11CA240A128A11831218
:100EC2000313A6012608523E84000A128A11032047
:100ED2000A128A110A128A119D250A128A110130F8
:100EE20083120313A1002108A60710302602031C57
:100EF2007B2F7C2F632FF601F60A00300A128A112B
:100F0200CA240A128A1183120313A6012608623E1A
:100F120084000A128A1103200A128A110A128A1103
:100F22009D250A128A11013083120313A1002108A0
:100F3200A6070E302602031C9F2FA02F872F1030EA
:100F42000A128A118B240A128A110C300A128A118F
:100F52009D250A128A11F60100300A128A11CA244A
:100F62000A128A1183120313A6012608883E8400FE
:100F72000A128A1103200A128A110A128A119D2565
:100F82000A128A11013083120313A1002108A60755
:100F92000A302602031CCE2FCF2FB62FF601F60AF7
:100FA20000300A128A11CA240A128A118312031308
:100FB200A60126087D3E84000A128A1103200A1225
:100FC2008A110A128A119D250A128A11013083128E
:100FD2000313A1002108A6070B302602031CF22FDF
:100FE200F32FDA2F0B300A128A116F240A128A1198
:0E0FF2000A128A11002883010A128A119C2E0D
:04400E00F220FF3F5E
:00000001FF
