:020000040000FA
:100000000A128A11FC2F00308A000408840A820731
:1000100000344E346F346934533469346E34683488
:100020003A3441346E3420344734693461346E34A8
:10003000673400344E34673461347934533469346E
:100040006E3468343A34303435342F34323430340A
:100050003034313400345034683461346D342034F9
:1000600054342E34543468347534793420344C3458
:1000700069346E34683400344D3453345334563458
:100080003A3431343934343437343134333430342D
:100090003134003448344B34543454343A342034FA
:1000A0005134753461346E3420343134303400349A
:1000B0004C346F3470343A3420344434543456342D
:0A00C0005434313435344134003437
:100AE40083120313A000882D200884000A128A119F
:100AF40003200A128A110A128A1168260A128A111C
:100B04000130FD007D0883120313A0072008840030
:100B14000A128A1103200A128A11003A031D932D26
:100B2400942D762D0800F800760803199A2D9B2D34
:100B3400A02D4030F7007708F900A12DF9017808BD
:100B4400F7007708F90779088038F7007708F30089
:100B540000300A128A11EB250A128A110A128A112C
:100B6400BB250A128A11003A031DB92DBA2DB02DE6
:100B740008008316031308168816081788178312AB
:100B84000313081588100630F000F00BC72D000081
:100B94008312031388150630F000F00BCF2D0000EC
:100BA400003083120313881B0130F10088110630D2
:100BB400F000F00BDB2D00008312031388150630C0
:100BC400F000F00BE32D0000831203138811710869
:100BD4000800F500831603130812881208138813FB
:100BE40075080319F62DF72DFB2D831203138814B2
:100BF400FE2D8312031388100630F400F40B002E2C
:100C040000008312031308110630F400F40B082EBD
:100C140000008312031388117308F40004300310D6
:100C2400F40CFF3E031D112E74080A128A112426A7
:100C34000A128A1173080F390A128A1124260A1219
:100C44008A110800F100831603130812881208138E
:100C540088137108F0007008F2007218322E362ED4
:100C6400831203130816392E831203130812F21881
:100C74003C2E402E831203138816432E8312031333
:100C840088127219462E4A2E8312031308174D2E0A
:100C9400831203130813F219502E542E83120313D4
:100CA4008817572E8312031388130630F000F00BB5
:100CB400592E00008312031388150630F000F00B40
:100CC400612E00008312031388110800FC00B02E6B
:100CD400F301F30A00300A128A11EB250A128A1171
:100CE4000A128A11BB250A128A11003A031D7B2EAF
:100CF4007C2E722EC32EF601F60A00300A128A11D7
:100D040095250A128A11C32E1030FA007A08F300CE
:100D140000300A128A11EB250A128A110A128A116A
:100D2400BB250A128A11003A031D992E9A2E902E81
:100D3400C32E7C08FA007A08F30001300A128A11E3
:100D4400EB250A128A110A128A11BB250A128A118A
:100D5400003A031DAE2EAF2EA52EC32E7C08FA003A
:100D6400FB017B08003A0319B82E9B2E7A08083A37
:100D74000319862E023A03197D2E063A03196A2EA8
:100D84009B2E08000A128A1159270A128A110C3064
:100D94000A128A1168260A128A11F60100300A1210
:100DA4008A1195250A128A1123300A128A11722592
:100DB4000A128A11F601F60A00300A128A119525E0
:100DC4000A128A1134300A128A1172250A128A11FF
:100DD4000B3083120313A3002630A2005D30A10060
:100DE400A10BF22EA20BF22EA30BF22E0C300A1240
:100DF4008A1168260A128A11F60100300A128A1131
:100E040095250A128A1112300A128A1172250A12C1
:100E14008A11F601F60A00300A128A1195250A127F
:100E24008A1101300A128A1172250A128A110B30B2
:100E340083120313A3002630A2005D30A100A10B8E
:100E4400212FA20B212FA30B212F0C300A128A1160
:100E540068260A128A11F60100300A128A119525B1
:100E64000A128A1142300A128A1172250A128A1150
:100E7400F601F60A00300A128A1195250A128A111F
:100E840050300A128A1172250A128A110B30831209
:100E94000313A3002630A2005D30A100A10B502F44
:100EA400A20B502FA30B502F0A128A11002883166D
:100EB4000313881188100811081288120813881364
:100EC4001430F7007930F600F60B662FF70B662F17
:100ED4006B2F8312031388100811881103300A1230
:100EE4008A1124260A128A110D30F700FB30F6000D
:100EF400F60B7A2FF70B7A2F7F2F03300A128A1101
:100F040024260A128A110D30F700FB30F600F60B86
:100F1400892FF70B892F8E2F03300A128A1124266A
:100F24000A128A110D30F700FB30F600F60B982FE9
:100F3400F70B982F9D2F02300A128A1124260A12C9
:100F44008A110A128A11BB250A128A11003A031D5A
:100F5400AC2FAD2FA32F2830F6007608F300003015
:100F64000A128A11EB250A128A110A128A11BB2568
:100F74000A128A11003A031DC02FC12FB72F0C305B
:100F8400F6007608F30000300A128A11EB250A12E3
:100F94008A110A128A11BB250A128A11003A031D0A
:100FA400D42FD52FCB2FF301F30A00300A128A1164
:100FB400EB250A128A110A128A11BB250A128A1118
:100FC400003A031DE62FE72FDD2F0630F6007608E2
:100FD400F30000300A128A11EB250A128A110A1250
:100FE4008A11BB250A128A11003A031DFA2FFB2F1E
:0C0FF400F12F080083010A128A11C42E9C
:04400E00F220FF3F5E
:00000001FF
