:020000040000FA
:100000000A128A11FC2F00308A000408840A820731
:1000100000340C344E3467347534793465346E34BE
:100020002034543461346E342034503468346134B4
:1000300070340A344D345334533456343A34203403
:10004000313439343434333436343434383431346C
:1000500000340C344E3467346134793453346934A9
:100060006E3468343A34313432342F3432343034EC
:10007000303431340A344E3453343A3420344E342C
:1000800069346E34683454346834753461346E3491
:1000900000340C3448344B34543454343A344734F8
:1000A0006F345634613470342C3454345034483402
:1000B00043344D340A344C346F3470343A3444345D
:0E00C00048345634543431343534413400342D
:100B840083120313A000D82D200884000A128A11AE
:100B940003200A128A110A128A11FD260A128A11E6
:100BA4000130FD007D0883120313A0072008840090
:100BB4000A128A1103200A128A11003A031DE32D36
:100BC400E42DC62D0800F80076080319EA2DEB2D54
:100BD400F02D4030F7007708F900F12DF90178087D
:100BE400F7007708F90779088038F7007708F300E9
:100BF40000300A128A113B260A128A110A128A113B
:100C04000B260A128A11003A031D092E0A2E002E01
:100C1400080083160313081688160817881783120A
:100C24000313081588100630F000F00B172E00008F
:100C34008312031388150630F000F00B1F2E0000FA
:100C4400003083120313881B0130F1008811063031
:100C5400F000F00B2B2E00008312031388150630CE
:100C6400F000F00B332E0000831203138811710877
:100C74000800F5008316031308128812081388135A
:100C840075080319462E472E4B2E8312031388141E
:100C94004E2E8312031388100630F400F40B502EEA
:100CA40000008312031308110630F400F40B582ECD
:100CB40000008312031388117308F4000430031036
:100CC400F40CFF3E031D612E74080A128A11742667
:100CD4000A128A1173080F390A128A1174260A1229
:100CE4008A110800F10083160313081288120813EE
:100CF40088137108F0007008F2007218822E862E94
:100D0400831203130816892E831203130812F21890
:100D14008C2E902E831203138816932E83120313A2
:100D240088127219962E9A2E8312031308179D2E79
:100D3400831203130813F219A02EA42E8312031393
:100D44008817A72E8312031388130630F000F00BC4
:100D5400A92E00008312031388150630F000F00B4F
:100D6400B12E000083120313881108000A128A119D
:100D740059270A128A1101300A128A11C2250A124D
:100D84008A110B3083120313A3002630A2005D30B6
:100D9400A100A10BCB2EA20BCB2EA30BCB2E21306B
:100DA4000A128A11C2250A128A110B308312031304
:100DB400A3002630A2005D30A100A10BDF2EA20B00
:100DC400DF2EA30BDF2E41300A128A11C2250A122C
:100DD4008A110B3083120313A3002630A2005D3066
:100DE400A100A10BF32EA20BF32EA30BF32EB82E0E
:100DF4000A128A110028FC00452FF301F30A00307F
:100E04000A128A113B260A128A110A128A110B2627
:100E14000A128A11003A031D102F112F072F582F81
:100E2400F601F60A00300A128A11E5250A128A111F
:100E3400582F1030FA007A08F30000300A128A1191
:100E44003B260A128A110A128A110B260A128A11E7
:100E5400003A031D2E2F2F2F252F582F7C08FA0020
:100E64007A08F30001300A128A113B260A128A1109
:100E74000A128A110B260A128A11003A031D432F03
:100E8400442F3A2F582F7C08FA00FB017B08003AC4
:100E940003194D2F302F7A08083A03191B2F023AF1
:100EA4000319122F063A0319FF2E302F0800831658
:100EB4000313881188100811081288120813881364
:100EC4001430F7007930F600F60B662FF70B662F17
:100ED4006B2F8312031388100811881103300A1230
:100EE4008A1174260A128A110D30F700FB30F600BD
:100EF400F60B7A2FF70B7A2F7F2F03300A128A1101
:100F040074260A128A110D30F700FB30F600F60B36
:100F1400892FF70B892F8E2F03300A128A1174261A
:100F24000A128A110D30F700FB30F600F60B982FE9
:100F3400F70B982F9D2F02300A128A1174260A1279
:100F44008A110A128A110B260A128A11003A031D09
:100F5400AC2FAD2FA32F2830F6007608F300003015
:100F64000A128A113B260A128A110A128A110B26C6
:100F74000A128A11003A031DC02FC12FB72F0C305B
:100F8400F6007608F30000300A128A113B260A1292
:100F94008A110A128A110B260A128A11003A031DB9
:100FA400D42FD52FCB2FF301F30A00300A128A1164
:100FB4003B260A128A110A128A110B260A128A1176
:100FC400003A031DE62FE72FDD2F0630F6007608E2
:100FD400F30000300A128A113B260A128A110A12FF
:100FE4008A110B260A128A11003A031DFA2FFB2FCD
:0C0FF400F12F080083010A128A11B82EA8
:04400E00F220FF3F5E
:00000001FF
