:020000040000FA
:060000000A128A11FC2F18
:100F6C008316031789018801831603130910831252
:100F7C000313091408000A128A11B6270A128A11DF
:100F8C000A128A11CF270A128A11CB2F0A128A1140
:100F9C00002883160313871407158312031391017A
:100FAC0052308316031392003E30831203139500C4
:100FBC0014309B000C3097000C309D001D161D1A30
:100FCC00E82FEC2F831203139D16EF2F83120313BC
:100FDC009D1297161712831603138710071183128D
:100FEC0003139201921012141215080083010A12B5
:040FFC008A11C12F66
:04400E00F220FF3F5E
:00000001FF
